{
  "_format": "hh-sol-artifact-1",
  "contractName": "CeloBloom",
  "sourceName": "contracts/CeloBloom.sol",
  "abi": [
    {
      "inputs": [
        {
          "internalType": "address",
          "name": "_cUSD",
          "type": "address"
        },
        {
          "internalType": "uint256",
          "name": "_rewardAmount",
          "type": "uint256"
        }
      ],
      "stateMutability": "nonpayable",
      "type": "constructor"
    },
    {
      "anonymous": false,
      "inputs": [
        {
          "indexed": true,
          "internalType": "address",
          "name": "owner",
          "type": "address"
        }
      ],
      "name": "OwnerUpdated",
      "type": "event"
    },
    {
      "anonymous": false,
      "inputs": [
        {
          "indexed": false,
          "internalType": "uint256",
          "name": "amount",
          "type": "uint256"
        }
      ],
      "name": "RewardAmountUpdated",
      "type": "event"
    },
    {
      "anonymous": false,
      "inputs": [
        {
          "indexed": true,
          "internalType": "address",
          "name": "user",
          "type": "address"
        },
        {
          "indexed": false,
          "internalType": "uint256",
          "name": "amount",
          "type": "uint256"
        },
        {
          "indexed": false,
          "internalType": "uint64",
          "name": "weekNumber",
          "type": "uint64"
        }
      ],
      "name": "RewardClaimed",
      "type": "event"
    },
    {
      "anonymous": false,
      "inputs": [
        {
          "indexed": true,
          "internalType": "address",
          "name": "user",
          "type": "address"
        },
        {
          "indexed": false,
          "internalType": "uint32",
          "name": "streak",
          "type": "uint32"
        }
      ],
      "name": "StreakAdjusted",
      "type": "event"
    },
    {
      "anonymous": false,
      "inputs": [
        {
          "indexed": true,
          "internalType": "address",
          "name": "from",
          "type": "address"
        },
        {
          "indexed": true,
          "internalType": "address",
          "name": "to",
          "type": "address"
        },
        {
          "indexed": false,
          "internalType": "uint32",
          "name": "fromGrowth",
          "type": "uint32"
        },
        {
          "indexed": false,
          "internalType": "uint32",
          "name": "toGrowth",
          "type": "uint32"
        }
      ],
      "name": "SunlightSent",
      "type": "event"
    },
    {
      "anonymous": false,
      "inputs": [
        {
          "indexed": true,
          "internalType": "address",
          "name": "user",
          "type": "address"
        },
        {
          "indexed": false,
          "internalType": "uint32",
          "name": "streakCount",
          "type": "uint32"
        },
        {
          "indexed": false,
          "internalType": "uint32",
          "name": "growthLevel",
          "type": "uint32"
        }
      ],
      "name": "Watered",
      "type": "event"
    },
    {
      "inputs": [],
      "name": "DAY",
      "outputs": [
        {
          "internalType": "uint256",
          "name": "",
          "type": "uint256"
        }
      ],
      "stateMutability": "view",
      "type": "function"
    },
    {
      "inputs": [],
      "name": "WEEK",
      "outputs": [
        {
          "internalType": "uint256",
          "name": "",
          "type": "uint256"
        }
      ],
      "stateMutability": "view",
      "type": "function"
    },
    {
      "inputs": [],
      "name": "cUSD",
      "outputs": [
        {
          "internalType": "contract IERC20",
          "name": "",
          "type": "address"
        }
      ],
      "stateMutability": "view",
      "type": "function"
    },
    {
      "inputs": [],
      "name": "claimReward",
      "outputs": [],
      "stateMutability": "nonpayable",
      "type": "function"
    },
    {
      "inputs": [],
      "name": "owner",
      "outputs": [
        {
          "internalType": "address",
          "name": "",
          "type": "address"
        }
      ],
      "stateMutability": "view",
      "type": "function"
    },
    {
      "inputs": [],
      "name": "rewardAmount",
      "outputs": [
        {
          "internalType": "uint256",
          "name": "",
          "type": "uint256"
        }
      ],
      "stateMutability": "view",
      "type": "function"
    },
    {
      "inputs": [
        {
          "internalType": "address",
          "name": "to",
          "type": "address"
        }
      ],
      "name": "sendSunlight",
      "outputs": [],
      "stateMutability": "nonpayable",
      "type": "function"
    },
    {
      "inputs": [
        {
          "internalType": "uint256",
          "name": "amount",
          "type": "uint256"
        }
      ],
      "name": "setRewardAmount",
      "outputs": [],
      "stateMutability": "nonpayable",
      "type": "function"
    },
    {
      "inputs": [
        {
          "internalType": "address",
          "name": "userAddress",
          "type": "address"
        },
        {
          "internalType": "uint256",
          "name": "streak",
          "type": "uint256"
        }
      ],
      "name": "setStreakForTesting",
      "outputs": [],
      "stateMutability": "nonpayable",
      "type": "function"
    },
    {
      "inputs": [
        {
          "internalType": "address",
          "name": "nextOwner",
          "type": "address"
        }
      ],
      "name": "transferOwnership",
      "outputs": [],
      "stateMutability": "nonpayable",
      "type": "function"
    },
    {
      "inputs": [
        {
          "internalType": "address",
          "name": "",
          "type": "address"
        }
      ],
      "name": "users",
      "outputs": [
        {
          "internalType": "uint32",
          "name": "streakCount",
          "type": "uint32"
        },
        {
          "internalType": "uint64",
          "name": "lastWateredAt",
          "type": "uint64"
        },
        {
          "internalType": "uint32",
          "name": "growthLevel",
          "type": "uint32"
        },
        {
          "internalType": "uint32",
          "name": "totalActions",
          "type": "uint32"
        },
        {
          "internalType": "uint32",
          "name": "sunlightSent",
          "type": "uint32"
        },
        {
          "internalType": "uint32",
          "name": "sunlightReceived",
          "type": "uint32"
        },
        {
          "internalType": "uint64",
          "name": "lastClaimedWeek",
          "type": "uint64"
        }
      ],
      "stateMutability": "view",
      "type": "function"
    },
    {
      "inputs": [],
      "name": "waterTree",
      "outputs": [],
      "stateMutability": "nonpayable",
      "type": "function"
    }
  ],
  "bytecode": "0x60a06040523480156200001157600080fd5b5060405162001b6a38038062001b6a8339818101604052810190620000379190620001c5565b33600160006101000a81548173ffffffffffffffffffffffffffffffffffffffff021916908373ffffffffffffffffffffffffffffffffffffffff1602179055508173ffffffffffffffffffffffffffffffffffffffff1660808173ffffffffffffffffffffffffffffffffffffffff168152505080600281905550600160009054906101000a900473ffffffffffffffffffffffffffffffffffffffff1673ffffffffffffffffffffffffffffffffffffffff167f4ffd725fc4a22075e9ec71c59edf9c38cdeb588a91b24fc5b61388c5be41282b60405160405180910390a250506200020c565b600080fd5b600073ffffffffffffffffffffffffffffffffffffffff82169050919050565b6000620001528262000125565b9050919050565b620001648162000145565b81146200017057600080fd5b50565b600081519050620001848162000159565b92915050565b6000819050919050565b6200019f816200018a565b8114620001ab57600080fd5b50565b600081519050620001bf8162000194565b92915050565b60008060408385031215620001df57620001de62000120565b5b6000620001ef8582860162000173565b92505060206200020285828601620001ae565b9150509250929050565b60805161193b6200022f6000396000818161020b01526105a0015261193b6000f3fe608060405234801561001057600080fd5b50600436106100b45760003560e01c8063c1a6ac6011610071578063c1a6ac601461016f578063c476b7871461018b578063d97e5aff146101a7578063f2fde38b146101b1578063f4359ce5146101cd578063f7b2a7be146101eb576100b4565b80631fccf672146100b957806327cfe856146100d75780638da5cb5b146100f5578063a87430ba14610113578063a8a65a7814610149578063b88a802f14610165575b600080fd5b6100c1610209565b6040516100ce91906111cf565b60405180910390f35b6100df61022d565b6040516100ec9190611203565b60405180910390f35b6100fd610234565b60405161010a919061123f565b60405180910390f35b61012d6004803603810190610128919061128b565b61025a565b60405161014097969594939291906112fa565b60405180910390f35b610163600480360381019061015e9190611395565b610314565b005b61016d6103e5565b005b610189600480360381019061018491906113c2565b6106d3565b005b6101a560048036038101906101a0919061128b565b6108ba565b005b6101af610b96565b005b6101cb60048036038101906101c6919061128b565b610dab565b005b6101d5610f31565b6040516101e29190611203565b60405180910390f35b6101f3610f38565b6040516102009190611203565b60405180910390f35b7f000000000000000000000000000000000000000000000000000000000000000081565b6201518081565b600160009054906101000a900473ffffffffffffffffffffffffffffffffffffffff1681565b60006020528060005260406000206000915090508060000160009054906101000a900463ffffffff16908060000160049054906101000a900467ffffffffffffffff169080600001600c9054906101000a900463ffffffff16908060000160109054906101000a900463ffffffff16908060000160149054906101000a900463ffffffff16908060000160189054906101000a900463ffffffff16908060010160009054906101000a900467ffffffffffffffff16905087565b600160009054906101000a900473ffffffffffffffffffffffffffffffffffffffff1673ffffffffffffffffffffffffffffffffffffffff163373ffffffffffffffffffffffffffffffffffffffff16146103a4576040517f08c379a000000000000000000000000000000000000000000000000000000000815260040161039b9061145f565b60405180910390fd5b806002819055507f9639dea65e74b72b1b86ccf3e4f9b6d23b88d2aad2f103d0b3afe394e67edade816040516103da9190611203565b60405180910390a150565b60008060003373ffffffffffffffffffffffffffffffffffffffff1673ffffffffffffffffffffffffffffffffffffffff168152602001908152602001600020905060038160000160009054906101000a900463ffffffff1663ffffffff161015610485576040517f08c379a000000000000000000000000000000000000000000000000000000000815260040161047c906114cb565b60405180910390fd5b600062093a80426104969190611549565b90508067ffffffffffffffff168260010160009054906101000a900467ffffffffffffffff1667ffffffffffffffff1610610506576040517f08c379a00000000000000000000000000000000000000000000000000000000081526004016104fd906115c6565b60405180910390fd5b808260010160006101000a81548167ffffffffffffffff021916908367ffffffffffffffff16021790555060018260000160108282829054906101000a900463ffffffff1661055591906115e6565b92506101000a81548163ffffffff021916908363ffffffff16021790555061057c82610f3e565b82600001600c6101000a81548163ffffffff021916908363ffffffff1602179055507f000000000000000000000000000000000000000000000000000000000000000073ffffffffffffffffffffffffffffffffffffffff1663a9059cbb336002546040518363ffffffff1660e01b81526004016105fb92919061161e565b6020604051808303816000875af115801561061a573d6000803e3d6000fd5b505050506040513d601f19601f8201168201806040525081019061063e919061167f565b61067d576040517f08c379a0000000000000000000000000000000000000000000000000000000008152600401610674906116f8565b60405180910390fd5b3373ffffffffffffffffffffffffffffffffffffffff167f939ab17a373f34ac1f2941d8a35e91521b1d271b6b24c806e5f73fc53a460b81600254836040516106c7929190611718565b60405180910390a25050565b600160009054906101000a900473ffffffffffffffffffffffffffffffffffffffff1673ffffffffffffffffffffffffffffffffffffffff163373ffffffffffffffffffffffffffffffffffffffff1614610763576040517f08c379a000000000000000000000000000000000000000000000000000000000815260040161075a9061145f565b60405180910390fd5b806000808473ffffffffffffffffffffffffffffffffffffffff1673ffffffffffffffffffffffffffffffffffffffff16815260200190815260200160002060000160006101000a81548163ffffffff021916908363ffffffff1602179055506108096000808473ffffffffffffffffffffffffffffffffffffffff1673ffffffffffffffffffffffffffffffffffffffff168152602001908152602001600020610f3e565b6000808473ffffffffffffffffffffffffffffffffffffffff1673ffffffffffffffffffffffffffffffffffffffff168152602001908152602001600020600001600c6101000a81548163ffffffff021916908363ffffffff1602179055508173ffffffffffffffffffffffffffffffffffffffff167f3b4d34cfe33fbbad2af88ad4814e69bbb8e7681af9f1c7f854d073a8cb2a94dc826040516108ae9190611741565b60405180910390a25050565b600073ffffffffffffffffffffffffffffffffffffffff168173ffffffffffffffffffffffffffffffffffffffff161415801561092357503373ffffffffffffffffffffffffffffffffffffffff168173ffffffffffffffffffffffffffffffffffffffff1614155b610962576040517f08c379a0000000000000000000000000000000000000000000000000000000008152600401610959906117a8565b60405180910390fd5b60008060003373ffffffffffffffffffffffffffffffffffffffff1673ffffffffffffffffffffffffffffffffffffffff168152602001908152602001600020905060008060008473ffffffffffffffffffffffffffffffffffffffff1673ffffffffffffffffffffffffffffffffffffffff168152602001908152602001600020905060018260000160108282829054906101000a900463ffffffff16610a0a91906115e6565b92506101000a81548163ffffffff021916908363ffffffff16021790555060018260000160148282829054906101000a900463ffffffff16610a4c91906115e6565b92506101000a81548163ffffffff021916908363ffffffff16021790555060018160000160188282829054906101000a900463ffffffff16610a8e91906115e6565b92506101000a81548163ffffffff021916908363ffffffff160217905550610ab582610f3e565b82600001600c6101000a81548163ffffffff021916908363ffffffff160217905550610ae081610f3e565b81600001600c6101000a81548163ffffffff021916908363ffffffff1602179055508273ffffffffffffffffffffffffffffffffffffffff163373ffffffffffffffffffffffffffffffffffffffff167f8e37094202629026e623e5d6f51327842328cc398f5769a519d34e91090a9e9184600001600c9054906101000a900463ffffffff1684600001600c9054906101000a900463ffffffff16604051610b899291906117c8565b60405180910390a3505050565b60008060003373ffffffffffffffffffffffffffffffffffffffff1673ffffffffffffffffffffffffffffffffffffffff16815260200190815260200160002090506000429050610bff8260000160049054906101000a900467ffffffffffffffff168261101e565b610c3e576040517f08c379a0000000000000000000000000000000000000000000000000000000008152600401610c359061183d565b60405180910390fd5b610c758260000160049054906101000a900467ffffffffffffffff16828460000160009054906101000a900463ffffffff1661108a565b8260000160006101000a81548163ffffffff021916908363ffffffff160217905550808260000160046101000a81548167ffffffffffffffff021916908367ffffffffffffffff16021790555060018260000160108282829054906101000a900463ffffffff16610ce691906115e6565b92506101000a81548163ffffffff021916908363ffffffff160217905550610d0d82610f3e565b82600001600c6101000a81548163ffffffff021916908363ffffffff1602179055503373ffffffffffffffffffffffffffffffffffffffff167fb58c98e17be7b0ea848a1a0b880b27fece019c639e3e2a291032720feaf7f9b08360000160009054906101000a900463ffffffff1684600001600c9054906101000a900463ffffffff16604051610d9f9291906117c8565b60405180910390a25050565b600160009054906101000a900473ffffffffffffffffffffffffffffffffffffffff1673ffffffffffffffffffffffffffffffffffffffff163373ffffffffffffffffffffffffffffffffffffffff1614610e3b576040517f08c379a0000000000000000000000000000000000000000000000000000000008152600401610e329061145f565b60405180910390fd5b600073ffffffffffffffffffffffffffffffffffffffff168173ffffffffffffffffffffffffffffffffffffffff1603610eaa576040517f08c379a0000000000000000000000000000000000000000000000000000000008152600401610ea1906118a9565b60405180910390fd5b80600160006101000a81548173ffffffffffffffffffffffffffffffffffffffff021916908373ffffffffffffffffffffffffffffffffffffffff1602179055508073ffffffffffffffffffffffffffffffffffffffff167f4ffd725fc4a22075e9ec71c59edf9c38cdeb588a91b24fc5b61388c5be41282b60405160405180910390a250565b62093a8081565b60025481565b600080600e8360000160009054906101000a900463ffffffff1663ffffffff1610610f6c5760049050610fc9565b60078360000160009054906101000a900463ffffffff1663ffffffff1610610f975760039050610fc8565b60038360000160009054906101000a900463ffffffff1663ffffffff1610610fc25760029050610fc7565b600190505b5b5b60148360000160109054906101000a900463ffffffff1663ffffffff1610158015610ffa575060048163ffffffff16105b156110145760018161100c91906115e6565b915050611019565b809150505b919050565b6000808367ffffffffffffffff160361103a5760019050611084565b620151808267ffffffffffffffff166110539190611549565b67ffffffffffffffff16620151808467ffffffffffffffff166110769190611549565b67ffffffffffffffff161090505b92915050565b6000808467ffffffffffffffff16036110a65760019050611149565b6000620151808567ffffffffffffffff166110c19190611549565b90506000620151808567ffffffffffffffff166110de9190611549565b90508167ffffffffffffffff168167ffffffffffffffff1603611105578392505050611149565b60018261111291906118c9565b67ffffffffffffffff168167ffffffffffffffff16036111425760018461113991906115e6565b92505050611149565b6001925050505b9392505050565b600073ffffffffffffffffffffffffffffffffffffffff82169050919050565b6000819050919050565b600061119561119061118b84611150565b611170565b611150565b9050919050565b60006111a78261117a565b9050919050565b60006111b98261119c565b9050919050565b6111c9816111ae565b82525050565b60006020820190506111e460008301846111c0565b92915050565b6000819050919050565b6111fd816111ea565b82525050565b600060208201905061121860008301846111f4565b92915050565b600061122982611150565b9050919050565b6112398161121e565b82525050565b60006020820190506112546000830184611230565b92915050565b600080fd5b6112688161121e565b811461127357600080fd5b50565b6000813590506112858161125f565b92915050565b6000602082840312156112a1576112a061125a565b5b60006112af84828501611276565b91505092915050565b600063ffffffff82169050919050565b6112d1816112b8565b82525050565b600067ffffffffffffffff82169050919050565b6112f4816112d7565b82525050565b600060e08201905061130f600083018a6112c8565b61131c60208301896112eb565b61132960408301886112c8565b61133660608301876112c8565b61134360808301866112c8565b61135060a08301856112c8565b61135d60c08301846112eb565b98975050505050505050565b611372816111ea565b811461137d57600080fd5b50565b60008135905061138f81611369565b92915050565b6000602082840312156113ab576113aa61125a565b5b60006113b984828501611380565b91505092915050565b600080604083850312156113d9576113d861125a565b5b60006113e785828601611276565b92505060206113f885828601611380565b9150509250929050565b600082825260208201905092915050565b7f4e4f545f4f574e45520000000000000000000000000000000000000000000000600082015250565b6000611449600983611402565b915061145482611413565b602082019050919050565b600060208201905081810360008301526114788161143c565b9050919050565b7f53545245414b5f544f4f5f4c4f57000000000000000000000000000000000000600082015250565b60006114b5600e83611402565b91506114c08261147f565b602082019050919050565b600060208201905081810360008301526114e4816114a8565b9050919050565b7f4e487b7100000000000000000000000000000000000000000000000000000000600052601260045260246000fd5b7f4e487b7100000000000000000000000000000000000000000000000000000000600052601160045260246000fd5b6000611554826111ea565b915061155f836111ea565b92508261156f5761156e6114eb565b5b828204905092915050565b7f414c52454144595f434c41494d45440000000000000000000000000000000000600082015250565b60006115b0600f83611402565b91506115bb8261157a565b602082019050919050565b600060208201905081810360008301526115df816115a3565b9050919050565b60006115f1826112b8565b91506115fc836112b8565b9250828201905063ffffffff8111156116185761161761151a565b5b92915050565b60006040820190506116336000830185611230565b61164060208301846111f4565b9392505050565b60008115159050919050565b61165c81611647565b811461166757600080fd5b50565b60008151905061167981611653565b92915050565b6000602082840312156116955761169461125a565b5b60006116a38482850161166a565b91505092915050565b7f5452414e534645525f4641494c45440000000000000000000000000000000000600082015250565b60006116e2600f83611402565b91506116ed826116ac565b602082019050919050565b60006020820190508181036000830152611711816116d5565b9050919050565b600060408201905061172d60008301856111f4565b61173a60208301846112eb565b9392505050565b600060208201905061175660008301846112c8565b92915050565b7f4241445f524543495049454e5400000000000000000000000000000000000000600082015250565b6000611792600d83611402565b915061179d8261175c565b602082019050919050565b600060208201905081810360008301526117c181611785565b9050919050565b60006040820190506117dd60008301856112c8565b6117ea60208301846112c8565b9392505050565b7f414c52454144595f574154455245440000000000000000000000000000000000600082015250565b6000611827600f83611402565b9150611832826117f1565b602082019050919050565b600060208201905081810360008301526118568161181a565b9050919050565b7f4241445f4f574e45520000000000000000000000000000000000000000000000600082015250565b6000611893600983611402565b915061189e8261185d565b602082019050919050565b600060208201905081810360008301526118c281611886565b9050919050565b60006118d4826112d7565b91506118df836112d7565b9250828201905067ffffffffffffffff8111156118ff576118fe61151a565b5b9291505056fea26469706673582212201a5a56c75390cef18c677c6d9e7bbf72d75e1b2e01073e2e5974709aedccce8464736f6c63430008140033",
  "linkReferences": {},
  "deployedLinkReferences": {}
}