{
  "_format": "hh-sol-artifact-1",
  "contractName": "CeloBloom",
  "sourceName": "contracts/CeloBloom.sol",
  "abi": [
    {
      "inputs": [
        {
          "internalType": "address",
          "name": "_cUSD",
          "type": "address"
        },
        {
          "internalType": "uint256",
          "name": "_rewardAmount",
          "type": "uint256"
        }
      ],
      "stateMutability": "nonpayable",
      "type": "constructor"
    },
    {
      "anonymous": false,
      "inputs": [
        {
          "indexed": true,
          "internalType": "address",
          "name": "owner",
          "type": "address"
        }
      ],
      "name": "OwnerUpdated",
      "type": "event"
    },
    {
      "anonymous": false,
      "inputs": [
        {
          "indexed": true,
          "internalType": "address",
          "name": "user",
          "type": "address"
        }
      ],
      "name": "ParticipantRegistered",
      "type": "event"
    },
    {
      "anonymous": false,
      "inputs": [
        {
          "indexed": false,
          "internalType": "uint256",
          "name": "amount",
          "type": "uint256"
        }
      ],
      "name": "RewardAmountUpdated",
      "type": "event"
    },
    {
      "anonymous": false,
      "inputs": [
        {
          "indexed": true,
          "internalType": "address",
          "name": "user",
          "type": "address"
        },
        {
          "indexed": false,
          "internalType": "uint256",
          "name": "amount",
          "type": "uint256"
        },
        {
          "indexed": false,
          "internalType": "uint64",
          "name": "weekNumber",
          "type": "uint64"
        }
      ],
      "name": "RewardClaimed",
      "type": "event"
    },
    {
      "anonymous": false,
      "inputs": [
        {
          "indexed": true,
          "internalType": "address",
          "name": "user",
          "type": "address"
        },
        {
          "indexed": false,
          "internalType": "uint32",
          "name": "streak",
          "type": "uint32"
        }
      ],
      "name": "StreakAdjusted",
      "type": "event"
    },
    {
      "anonymous": false,
      "inputs": [
        {
          "indexed": true,
          "internalType": "address",
          "name": "from",
          "type": "address"
        },
        {
          "indexed": true,
          "internalType": "address",
          "name": "to",
          "type": "address"
        },
        {
          "indexed": false,
          "internalType": "uint32",
          "name": "fromGrowth",
          "type": "uint32"
        },
        {
          "indexed": false,
          "internalType": "uint32",
          "name": "toGrowth",
          "type": "uint32"
        }
      ],
      "name": "SunlightSent",
      "type": "event"
    },
    {
      "anonymous": false,
      "inputs": [
        {
          "indexed": true,
          "internalType": "address",
          "name": "user",
          "type": "address"
        },
        {
          "indexed": false,
          "internalType": "uint32",
          "name": "streakCount",
          "type": "uint32"
        },
        {
          "indexed": false,
          "internalType": "uint32",
          "name": "growthLevel",
          "type": "uint32"
        }
      ],
      "name": "Watered",
      "type": "event"
    },
    {
      "inputs": [],
      "name": "DAY",
      "outputs": [
        {
          "internalType": "uint256",
          "name": "",
          "type": "uint256"
        }
      ],
      "stateMutability": "view",
      "type": "function"
    },
    {
      "inputs": [],
      "name": "WEEK",
      "outputs": [
        {
          "internalType": "uint256",
          "name": "",
          "type": "uint256"
        }
      ],
      "stateMutability": "view",
      "type": "function"
    },
    {
      "inputs": [],
      "name": "cUSD",
      "outputs": [
        {
          "internalType": "contract IERC20",
          "name": "",
          "type": "address"
        }
      ],
      "stateMutability": "view",
      "type": "function"
    },
    {
      "inputs": [],
      "name": "claimReward",
      "outputs": [],
      "stateMutability": "nonpayable",
      "type": "function"
    },
    {
      "inputs": [],
      "name": "getParticipantCount",
      "outputs": [
        {
          "internalType": "uint256",
          "name": "",
          "type": "uint256"
        }
      ],
      "stateMutability": "view",
      "type": "function"
    },
    {
      "inputs": [
        {
          "internalType": "uint256",
          "name": "offset",
          "type": "uint256"
        },
        {
          "internalType": "uint256",
          "name": "limit",
          "type": "uint256"
        }
      ],
      "name": "getParticipants",
      "outputs": [
        {
          "internalType": "address[]",
          "name": "",
          "type": "address[]"
        }
      ],
      "stateMutability": "view",
      "type": "function"
    },
    {
      "inputs": [
        {
          "internalType": "address",
          "name": "",
          "type": "address"
        }
      ],
      "name": "isParticipant",
      "outputs": [
        {
          "internalType": "bool",
          "name": "",
          "type": "bool"
        }
      ],
      "stateMutability": "view",
      "type": "function"
    },
    {
      "inputs": [],
      "name": "owner",
      "outputs": [
        {
          "internalType": "address",
          "name": "",
          "type": "address"
        }
      ],
      "stateMutability": "view",
      "type": "function"
    },
    {
      "inputs": [
        {
          "internalType": "uint256",
          "name": "",
          "type": "uint256"
        }
      ],
      "name": "participants",
      "outputs": [
        {
          "internalType": "address",
          "name": "",
          "type": "address"
        }
      ],
      "stateMutability": "view",
      "type": "function"
    },
    {
      "inputs": [],
      "name": "rewardAmount",
      "outputs": [
        {
          "internalType": "uint256",
          "name": "",
          "type": "uint256"
        }
      ],
      "stateMutability": "view",
      "type": "function"
    },
    {
      "inputs": [
        {
          "internalType": "address",
          "name": "to",
          "type": "address"
        }
      ],
      "name": "sendSunlight",
      "outputs": [],
      "stateMutability": "nonpayable",
      "type": "function"
    },
    {
      "inputs": [
        {
          "internalType": "uint256",
          "name": "amount",
          "type": "uint256"
        }
      ],
      "name": "setRewardAmount",
      "outputs": [],
      "stateMutability": "nonpayable",
      "type": "function"
    },
    {
      "inputs": [
        {
          "internalType": "address",
          "name": "userAddress",
          "type": "address"
        },
        {
          "internalType": "uint256",
          "name": "streak",
          "type": "uint256"
        }
      ],
      "name": "setStreakForTesting",
      "outputs": [],
      "stateMutability": "nonpayable",
      "type": "function"
    },
    {
      "inputs": [
        {
          "internalType": "address",
          "name": "nextOwner",
          "type": "address"
        }
      ],
      "name": "transferOwnership",
      "outputs": [],
      "stateMutability": "nonpayable",
      "type": "function"
    },
    {
      "inputs": [
        {
          "internalType": "address",
          "name": "",
          "type": "address"
        }
      ],
      "name": "users",
      "outputs": [
        {
          "internalType": "uint32",
          "name": "streakCount",
          "type": "uint32"
        },
        {
          "internalType": "uint64",
          "name": "lastWateredAt",
          "type": "uint64"
        },
        {
          "internalType": "uint32",
          "name": "growthLevel",
          "type": "uint32"
        },
        {
          "internalType": "uint32",
          "name": "totalActions",
          "type": "uint32"
        },
        {
          "internalType": "uint32",
          "name": "sunlightSent",
          "type": "uint32"
        },
        {
          "internalType": "uint32",
          "name": "sunlightReceived",
          "type": "uint32"
        },
        {
          "internalType": "uint64",
          "name": "lastClaimedWeek",
          "type": "uint64"
        }
      ],
      "stateMutability": "view",
      "type": "function"
    },
    {
      "inputs": [],
      "name": "waterTree",
      "outputs": [],
      "stateMutability": "nonpayable",
      "type": "function"
    }
  ],
  "bytecode": "0x60a06040523480156200001157600080fd5b5060405162002241380380620022418339818101604052810190620000379190620001c5565b33600360006101000a81548173ffffffffffffffffffffffffffffffffffffffff021916908373ffffffffffffffffffffffffffffffffffffffff1602179055508173ffffffffffffffffffffffffffffffffffffffff1660808173ffffffffffffffffffffffffffffffffffffffff168152505080600481905550600360009054906101000a900473ffffffffffffffffffffffffffffffffffffffff1673ffffffffffffffffffffffffffffffffffffffff167f4ffd725fc4a22075e9ec71c59edf9c38cdeb588a91b24fc5b61388c5be41282b60405160405180910390a250506200020c565b600080fd5b600073ffffffffffffffffffffffffffffffffffffffff82169050919050565b6000620001528262000125565b9050919050565b620001648162000145565b81146200017057600080fd5b50565b600081519050620001848162000159565b92915050565b6000819050919050565b6200019f816200018a565b8114620001ab57600080fd5b50565b600081519050620001bf8162000194565b92915050565b60008060408385031215620001df57620001de62000120565b5b6000620001ef8582860162000173565b92505060206200020285828601620001ae565b9150509250929050565b6080516120126200022f60003960008181610305015261070f01526120126000f3fe608060405234801561001057600080fd5b50600436106101005760003560e01c8063b88a802f11610097578063ded0ed1611610066578063ded0ed161461027b578063f2fde38b146102ab578063f4359ce5146102c7578063f7b2a7be146102e557610100565b8063b88a802f1461022f578063c1a6ac6014610239578063c476b78714610255578063d97e5aff1461027157610100565b8063929066f5116100d3578063929066f51461018f578063a87430ba146101bf578063a8a65a78146101f5578063ad6057291461021157610100565b80631fccf6721461010557806327cfe8561461012357806335c1d349146101415780638da5cb5b14610171575b600080fd5b61010d610303565b60405161011a919061164e565b60405180910390f35b61012b610327565b6040516101389190611682565b60405180910390f35b61015b600480360381019061015691906116ce565b61032e565b604051610168919061171c565b60405180910390f35b61017961036d565b604051610186919061171c565b60405180910390f35b6101a960048036038101906101a49190611763565b610393565b6040516101b691906117ab565b60405180910390f35b6101d960048036038101906101d49190611763565b6103b3565b6040516101ec9796959493929190611808565b60405180910390f35b61020f600480360381019061020a91906116ce565b61046d565b005b61021961053e565b6040516102269190611682565b60405180910390f35b61023761054b565b005b610253600480360381019061024e9190611877565b610842565b005b61026f600480360381019061026a9190611763565b610a32565b005b610279610d17565b005b610295600480360381019061029091906118b7565b610f35565b6040516102a291906119b5565b60405180910390f35b6102c560048036038101906102c09190611763565b6110d7565b005b6102cf61125d565b6040516102dc9190611682565b60405180910390f35b6102ed611264565b6040516102fa9190611682565b60405180910390f35b7f000000000000000000000000000000000000000000000000000000000000000081565b6201518081565b6001818154811061033e57600080fd5b906000526020600020016000915054906101000a900473ffffffffffffffffffffffffffffffffffffffff1681565b600360009054906101000a900473ffffffffffffffffffffffffffffffffffffffff1681565b60026020528060005260406000206000915054906101000a900460ff1681565b60006020528060005260406000206000915090508060000160009054906101000a900463ffffffff16908060000160049054906101000a900467ffffffffffffffff169080600001600c9054906101000a900463ffffffff16908060000160109054906101000a900463ffffffff16908060000160149054906101000a900463ffffffff16908060000160189054906101000a900463ffffffff16908060010160009054906101000a900467ffffffffffffffff16905087565b600360009054906101000a900473ffffffffffffffffffffffffffffffffffffffff1673ffffffffffffffffffffffffffffffffffffffff163373ffffffffffffffffffffffffffffffffffffffff16146104fd576040517f08c379a00000000000000000000000000000000000000000000000000000000081526004016104f490611a34565b60405180910390fd5b806004819055507f9639dea65e74b72b1b86ccf3e4f9b6d23b88d2aad2f103d0b3afe394e67edade816040516105339190611682565b60405180910390a150565b6000600180549050905090565b6105543361126a565b60008060003373ffffffffffffffffffffffffffffffffffffffff1673ffffffffffffffffffffffffffffffffffffffff168152602001908152602001600020905060038160000160009054906101000a900463ffffffff1663ffffffff1610156105f4576040517f08c379a00000000000000000000000000000000000000000000000000000000081526004016105eb90611aa0565b60405180910390fd5b600062093a80426106059190611b1e565b90508067ffffffffffffffff168260010160009054906101000a900467ffffffffffffffff1667ffffffffffffffff1610610675576040517f08c379a000000000000000000000000000000000000000000000000000000000815260040161066c90611b9b565b60405180910390fd5b808260010160006101000a81548167ffffffffffffffff021916908367ffffffffffffffff16021790555060018260000160108282829054906101000a900463ffffffff166106c49190611bbb565b92506101000a81548163ffffffff021916908363ffffffff1602179055506106eb826113bd565b82600001600c6101000a81548163ffffffff021916908363ffffffff1602179055507f000000000000000000000000000000000000000000000000000000000000000073ffffffffffffffffffffffffffffffffffffffff1663a9059cbb336004546040518363ffffffff1660e01b815260040161076a929190611bf3565b6020604051808303816000875af1158015610789573d6000803e3d6000fd5b505050506040513d601f19601f820116820180604052508101906107ad9190611c48565b6107ec576040517f08c379a00000000000000000000000000000000000000000000000000000000081526004016107e390611cc1565b60405180910390fd5b3373ffffffffffffffffffffffffffffffffffffffff167f939ab17a373f34ac1f2941d8a35e91521b1d271b6b24c806e5f73fc53a460b8160045483604051610836929190611ce1565b60405180910390a25050565b600360009054906101000a900473ffffffffffffffffffffffffffffffffffffffff1673ffffffffffffffffffffffffffffffffffffffff163373ffffffffffffffffffffffffffffffffffffffff16146108d2576040517f08c379a00000000000000000000000000000000000000000000000000000000081526004016108c990611a34565b60405180910390fd5b6108db8261126a565b806000808473ffffffffffffffffffffffffffffffffffffffff1673ffffffffffffffffffffffffffffffffffffffff16815260200190815260200160002060000160006101000a81548163ffffffff021916908363ffffffff1602179055506109816000808473ffffffffffffffffffffffffffffffffffffffff1673ffffffffffffffffffffffffffffffffffffffff1681526020019081526020016000206113bd565b6000808473ffffffffffffffffffffffffffffffffffffffff1673ffffffffffffffffffffffffffffffffffffffff168152602001908152602001600020600001600c6101000a81548163ffffffff021916908363ffffffff1602179055508173ffffffffffffffffffffffffffffffffffffffff167f3b4d34cfe33fbbad2af88ad4814e69bbb8e7681af9f1c7f854d073a8cb2a94dc82604051610a269190611d0a565b60405180910390a25050565b600073ffffffffffffffffffffffffffffffffffffffff168173ffffffffffffffffffffffffffffffffffffffff1614158015610a9b57503373ffffffffffffffffffffffffffffffffffffffff168173ffffffffffffffffffffffffffffffffffffffff1614155b610ada576040517f08c379a0000000000000000000000000000000000000000000000000000000008152600401610ad190611d71565b60405180910390fd5b610ae33361126a565b60008060003373ffffffffffffffffffffffffffffffffffffffff1673ffffffffffffffffffffffffffffffffffffffff168152602001908152602001600020905060008060008473ffffffffffffffffffffffffffffffffffffffff1673ffffffffffffffffffffffffffffffffffffffff168152602001908152602001600020905060018260000160108282829054906101000a900463ffffffff16610b8b9190611bbb565b92506101000a81548163ffffffff021916908363ffffffff16021790555060018260000160148282829054906101000a900463ffffffff16610bcd9190611bbb565b92506101000a81548163ffffffff021916908363ffffffff16021790555060018160000160188282829054906101000a900463ffffffff16610c0f9190611bbb565b92506101000a81548163ffffffff021916908363ffffffff160217905550610c36826113bd565b82600001600c6101000a81548163ffffffff021916908363ffffffff160217905550610c61816113bd565b81600001600c6101000a81548163ffffffff021916908363ffffffff1602179055508273ffffffffffffffffffffffffffffffffffffffff163373ffffffffffffffffffffffffffffffffffffffff167f8e37094202629026e623e5d6f51327842328cc398f5769a519d34e91090a9e9184600001600c9054906101000a900463ffffffff1684600001600c9054906101000a900463ffffffff16604051610d0a929190611d91565b60405180910390a3505050565b610d203361126a565b60008060003373ffffffffffffffffffffffffffffffffffffffff1673ffffffffffffffffffffffffffffffffffffffff16815260200190815260200160002090506000429050610d898260000160049054906101000a900467ffffffffffffffff168261149d565b610dc8576040517f08c379a0000000000000000000000000000000000000000000000000000000008152600401610dbf90611e06565b60405180910390fd5b610dff8260000160049054906101000a900467ffffffffffffffff16828460000160009054906101000a900463ffffffff16611509565b8260000160006101000a81548163ffffffff021916908363ffffffff160217905550808260000160046101000a81548167ffffffffffffffff021916908367ffffffffffffffff16021790555060018260000160108282829054906101000a900463ffffffff16610e709190611bbb565b92506101000a81548163ffffffff021916908363ffffffff160217905550610e97826113bd565b82600001600c6101000a81548163ffffffff021916908363ffffffff1602179055503373ffffffffffffffffffffffffffffffffffffffff167fb58c98e17be7b0ea848a1a0b880b27fece019c639e3e2a291032720feaf7f9b08360000160009054906101000a900463ffffffff1684600001600c9054906101000a900463ffffffff16604051610f29929190611d91565b60405180910390a25050565b606060006001805490509050808410610f9a57600067ffffffffffffffff811115610f6357610f62611e26565b5b604051908082528060200260200182016040528015610f915781602001602082028036833780820191505090505b509150506110d1565b60008385610fa89190611e55565b905081811115610fb6578190505b60008582610fc49190611e89565b905060008167ffffffffffffffff811115610fe257610fe1611e26565b5b6040519080825280602002602001820160405280156110105781602001602082028036833780820191505090505b50905060005b828110156110c8576001818961102c9190611e55565b8154811061103d5761103c611ebd565b5b9060005260206000200160009054906101000a900473ffffffffffffffffffffffffffffffffffffffff1682828151811061107b5761107a611ebd565b5b602002602001019073ffffffffffffffffffffffffffffffffffffffff16908173ffffffffffffffffffffffffffffffffffffffff168152505080806110c090611eec565b915050611016565b50809450505050505b92915050565b600360009054906101000a900473ffffffffffffffffffffffffffffffffffffffff1673ffffffffffffffffffffffffffffffffffffffff163373ffffffffffffffffffffffffffffffffffffffff1614611167576040517f08c379a000000000000000000000000000000000000000000000000000000000815260040161115e90611a34565b60405180910390fd5b600073ffffffffffffffffffffffffffffffffffffffff168173ffffffffffffffffffffffffffffffffffffffff16036111d6576040517f08c379a00000000000000000000000000000000000000000000000000000000081526004016111cd90611f80565b60405180910390fd5b80600360006101000a81548173ffffffffffffffffffffffffffffffffffffffff021916908373ffffffffffffffffffffffffffffffffffffffff1602179055508073ffffffffffffffffffffffffffffffffffffffff167f4ffd725fc4a22075e9ec71c59edf9c38cdeb588a91b24fc5b61388c5be41282b60405160405180910390a250565b62093a8081565b60045481565b600260008273ffffffffffffffffffffffffffffffffffffffff1673ffffffffffffffffffffffffffffffffffffffff16815260200190815260200160002060009054906101000a900460ff166113ba576001600260008373ffffffffffffffffffffffffffffffffffffffff1673ffffffffffffffffffffffffffffffffffffffff16815260200190815260200160002060006101000a81548160ff0219169083151502179055506001819080600181540180825580915050600190039060005260206000200160009091909190916101000a81548173ffffffffffffffffffffffffffffffffffffffff021916908373ffffffffffffffffffffffffffffffffffffffff1602179055508073ffffffffffffffffffffffffffffffffffffffff167fe11711cd714e06fbbbea301a8e90822f2f2ea4808e37e3adf06038f33c53ff2760405160405180910390a25b50565b600080600e8360000160009054906101000a900463ffffffff1663ffffffff16106113eb5760049050611448565b60078360000160009054906101000a900463ffffffff1663ffffffff16106114165760039050611447565b60038360000160009054906101000a900463ffffffff1663ffffffff16106114415760029050611446565b600190505b5b5b60148360000160109054906101000a900463ffffffff1663ffffffff1610158015611479575060048163ffffffff16105b156114935760018161148b9190611bbb565b915050611498565b809150505b919050565b6000808367ffffffffffffffff16036114b95760019050611503565b620151808267ffffffffffffffff166114d29190611b1e565b67ffffffffffffffff16620151808467ffffffffffffffff166114f59190611b1e565b67ffffffffffffffff161090505b92915050565b6000808467ffffffffffffffff160361152557600190506115c8565b6000620151808567ffffffffffffffff166115409190611b1e565b90506000620151808567ffffffffffffffff1661155d9190611b1e565b90508167ffffffffffffffff168167ffffffffffffffff16036115845783925050506115c8565b6001826115919190611fa0565b67ffffffffffffffff168167ffffffffffffffff16036115c1576001846115b89190611bbb565b925050506115c8565b6001925050505b9392505050565b600073ffffffffffffffffffffffffffffffffffffffff82169050919050565b6000819050919050565b600061161461160f61160a846115cf565b6115ef565b6115cf565b9050919050565b6000611626826115f9565b9050919050565b60006116388261161b565b9050919050565b6116488161162d565b82525050565b6000602082019050611663600083018461163f565b92915050565b6000819050919050565b61167c81611669565b82525050565b60006020820190506116976000830184611673565b92915050565b600080fd5b6116ab81611669565b81146116b657600080fd5b50565b6000813590506116c8816116a2565b92915050565b6000602082840312156116e4576116e361169d565b5b60006116f2848285016116b9565b91505092915050565b6000611706826115cf565b9050919050565b611716816116fb565b82525050565b6000602082019050611731600083018461170d565b92915050565b611740816116fb565b811461174b57600080fd5b50565b60008135905061175d81611737565b92915050565b6000602082840312156117795761177861169d565b5b60006117878482850161174e565b91505092915050565b60008115159050919050565b6117a581611790565b82525050565b60006020820190506117c0600083018461179c565b92915050565b600063ffffffff82169050919050565b6117df816117c6565b82525050565b600067ffffffffffffffff82169050919050565b611802816117e5565b82525050565b600060e08201905061181d600083018a6117d6565b61182a60208301896117f9565b61183760408301886117d6565b61184460608301876117d6565b61185160808301866117d6565b61185e60a08301856117d6565b61186b60c08301846117f9565b98975050505050505050565b6000806040838503121561188e5761188d61169d565b5b600061189c8582860161174e565b92505060206118ad858286016116b9565b9150509250929050565b600080604083850312156118ce576118cd61169d565b5b60006118dc858286016116b9565b92505060206118ed858286016116b9565b9150509250929050565b600081519050919050565b600082825260208201905092915050565b6000819050602082019050919050565b61192c816116fb565b82525050565b600061193e8383611923565b60208301905092915050565b6000602082019050919050565b6000611962826118f7565b61196c8185611902565b935061197783611913565b8060005b838110156119a857815161198f8882611932565b975061199a8361194a565b92505060018101905061197b565b5085935050505092915050565b600060208201905081810360008301526119cf8184611957565b905092915050565b600082825260208201905092915050565b7f4e4f545f4f574e45520000000000000000000000000000000000000000000000600082015250565b6000611a1e6009836119d7565b9150611a29826119e8565b602082019050919050565b60006020820190508181036000830152611a4d81611a11565b9050919050565b7f53545245414b5f544f4f5f4c4f57000000000000000000000000000000000000600082015250565b6000611a8a600e836119d7565b9150611a9582611a54565b602082019050919050565b60006020820190508181036000830152611ab981611a7d565b9050919050565b7f4e487b7100000000000000000000000000000000000000000000000000000000600052601260045260246000fd5b7f4e487b7100000000000000000000000000000000000000000000000000000000600052601160045260246000fd5b6000611b2982611669565b9150611b3483611669565b925082611b4457611b43611ac0565b5b828204905092915050565b7f414c52454144595f434c41494d45440000000000000000000000000000000000600082015250565b6000611b85600f836119d7565b9150611b9082611b4f565b602082019050919050565b60006020820190508181036000830152611bb481611b78565b9050919050565b6000611bc6826117c6565b9150611bd1836117c6565b9250828201905063ffffffff811115611bed57611bec611aef565b5b92915050565b6000604082019050611c08600083018561170d565b611c156020830184611673565b9392505050565b611c2581611790565b8114611c3057600080fd5b50565b600081519050611c4281611c1c565b92915050565b600060208284031215611c5e57611c5d61169d565b5b6000611c6c84828501611c33565b91505092915050565b7f5452414e534645525f4641494c45440000000000000000000000000000000000600082015250565b6000611cab600f836119d7565b9150611cb682611c75565b602082019050919050565b60006020820190508181036000830152611cda81611c9e565b9050919050565b6000604082019050611cf66000830185611673565b611d0360208301846117f9565b9392505050565b6000602082019050611d1f60008301846117d6565b92915050565b7f4241445f524543495049454e5400000000000000000000000000000000000000600082015250565b6000611d5b600d836119d7565b9150611d6682611d25565b602082019050919050565b60006020820190508181036000830152611d8a81611d4e565b9050919050565b6000604082019050611da660008301856117d6565b611db360208301846117d6565b9392505050565b7f414c52454144595f574154455245440000000000000000000000000000000000600082015250565b6000611df0600f836119d7565b9150611dfb82611dba565b602082019050919050565b60006020820190508181036000830152611e1f81611de3565b9050919050565b7f4e487b7100000000000000000000000000000000000000000000000000000000600052604160045260246000fd5b6000611e6082611669565b9150611e6b83611669565b9250828201905080821115611e8357611e82611aef565b5b92915050565b6000611e9482611669565b9150611e9f83611669565b9250828203905081811115611eb757611eb6611aef565b5b92915050565b7f4e487b7100000000000000000000000000000000000000000000000000000000600052603260045260246000fd5b6000611ef782611669565b91507fffffffffffffffffffffffffffffffffffffffffffffffffffffffffffffffff8203611f2957611f28611aef565b5b600182019050919050565b7f4241445f4f574e45520000000000000000000000000000000000000000000000600082015250565b6000611f6a6009836119d7565b9150611f7582611f34565b602082019050919050565b60006020820190508181036000830152611f9981611f5d565b9050919050565b6000611fab826117e5565b9150611fb6836117e5565b9250828201905067ffffffffffffffff811115611fd657611fd5611aef565b5b9291505056fea2646970667358221220dc2bd8da7e747a6443155921f0bf17c8850fda6d0f58889ea4b0dfb82c73317e64736f6c63430008140033",
  "linkReferences": {},
  "deployedLinkReferences": {}
}